:020000040800F2
:100000000805002065010008DD110008D91000086E
:10001000D9110008F5010008EB17000800000000E6
:10002000000000000000000000000000DD140008D7
:100030000B0C00080000000065120008951600086F
:100040007F0100087F0100087F0100087F01000890
:100050007F0100087F0100087F0100087F01000880
:10006000C50C00087F0100087F0100087F0100081F
:100070007F0100087F0100087F0100087F01000860
:100080007F0100087F0100087F010008DD030008F0
:10009000F90100087F0100087F010008F50C000845
:1000A0007F0100087F0100087F0100087F01000830
:1000B0007F0100087F0100087F0100087F01000820
:1000C0007F0100087F0100087F0100087F01000810
:1000D0007F010008051700087F0100087F01000864
:1000E0000D0C00087F0100087F01000800000000DF
:1000F0000000000000000000000000000000000000
:1001000000000000000000007F0100087F010008DF
:100110007F0100087F0100087F0100087F010008BF
:100120007F0100087F0100087F0100087F010008AF
:100130007F0100087F0100087F0100087F0100089F
:100140007F0100087F0100087F0100087F0100088F
:10015000DFF80CD000F018F8004800479D180008A0
:10016000080500200648804706480047FEE7FEE7EE
:10017000FEE7FEE7FEE7FEE7FEE7FEE7FEE7FEE757
:100180009916000851010008064C074D06E0E0688A
:1001900040F0010394E8070098471034AC42F6D3CE
:1001A000FFF7DAFFD4180008F418000808B5012199
:1001B000082001F079F84CF22000ADF80000102082
:1001C0008DF8030003208DF802006946084800F00E
:1001D000EBFE4FF40041064800F07CFF4FF48041F5
:1001E000034800F077FF2021014800F073FF08BDAD
:1001F000000C014000BFFEE770B50025002400267A
:1002000002216A4800F07AFA00287DD0684A00216D
:10021000664800F096FB6648007B01046448407B1A
:1002200041EA00616248807B41EA00206049C97B65
:1002300040EA01055E48407B01065D48007B41EADB
:1002400000405B49C97B08435949097C40EA0124C5
:100250005748006840F2815188421ED15448007AC4
:10026000D8B95348807A082817D15148C07A4B280A
:1002700013D15048204440B1B0F5144F0BD10120A8
:100280004D49087000F02AFF06E000204B49087035
:1002900000F024FF00E000BF00BF4548006840F2C6
:1002A000825188421ED14248007AD8B94048807AAB
:1002B000082817D13E48C07A4B2813D13D48204426
:1002C00040B1B0F5144F0BD101203D49087000F04A
:1002D00005FF06E000203949087000F0FFFE00E04D
:1002E00000BF00BF3248006840F28351884220D1ED
:1002F0002F48007AE8B92E48807A082819D12C486E
:10030000C07A4B2815D100E04EE02A48204440B185
:10031000B0F5144F0BD101202849087000F0DEFE23
:1003200006E000202549087000F0D8FE00E000BF7C
:1003300000BF1F48006840F21151884233D11C4869
:10034000007A78BB1A48807A08282CD156BB1D4801
:10035000284448B1A0F2011090B1A0F2FF5048B17A
:1003600019490844E0B911E001201849087001F06A
:1003700047F816E001201649087001F041F810E036
:1003800001201449087001F03BF80AE012480068A7
:1003900008B9012000E000200F490860012600BFD5
:1003A00000BF01E0FFE700BF70BD00000064004037
:1003B0002C000020C9BDBE9F0400002006000020C4
:1003C00005000020FFFEFEDF0007F0FF0100002017
:1003D00002000020030000208001224210B501210C
:1003E000044800F08BF918B10121024800F004F82C
:1003F00010BD000000640040B1F5007F3AD00FDC72
:10040000202928D006DC01291CD004291DD0082968
:1004100040D11DE0402921D0B1F5807F3AD126E0BE
:10042000B1F5004F31D006DCB1F5806F25D0B1F5C4
:10043000006F2FD124E0B1F5803F12D0B1F5003F1D
:1004400028D111E0154A826025E00822C26022E02E
:100450001022C2601FE0082202611CE0102202612B
:1004600019E00822426016E01022426013E00422E4
:10047000426010E0042242600DE0042242600AE083
:10048000002282610422426005E00022826104228F
:10049000426000E000BF00BF7047000001010100A2
:1004A00000B589B0434800F089F80121042000F02C
:1004B000FBFE4FF40060ADF8200048208DF82300CB
:1004C00003208DF8220008A93B4800F06DFD4FF491
:1004D0008050ADF8200018208DF8230003208DF8FF
:1004E000220008A9344800F05FFD0121480600F011
:1004F000BBFE00208DF81A008DF81B008DF81C0043
:100500008DF81D008DF81E0001208DF81F000020C1
:100510008DF816008DF8170008208DF818000720B8
:100520008DF819000420ADF8140005A9214800F049
:100530007EF900208DF80E008DF80F0001208DF857
:1005400010000020ADF80400ADF80600ADF808007A
:10055000ADF80A00ADF80C0001208DF8110001A8DB
:1005600000F048F814208DF8000002208DF80100FA
:1005700001208DF802008DF80300684600F030FE7F
:1005800013208DF8000001208DF801008DF8020085
:100590008DF80300684600F023FE01220221054881
:1005A00000F03CF901221146024800F037F909B089
:1005B00000BD0000006400400008014010B5044682
:1005C0000B48844209D10121480600F05DFE00215C
:1005D0004FF0007000F058FE08E00121880600F09E
:1005E00053FE00214FF0806000F04EFE10BD000071
:1005F0000064004010B50021837A012202FA03F161
:100600003D4A126842F001023B4B1A603A4A1C32E2
:1006100012688A43384B1C331A60027BCAB9364AC7
:100620000C3212688A43344B0C331A604288C388F8
:1006300042EA0343304A4032847A42F83430028836
:10064000838842EA03432C4A4032847A02EBC40294
:100650005360027B012A19D1274A0C3212680A43DF
:10066000254B0C331A604288038842EA0343224A2E
:100670004032847A42F83430C288838842EA0343A5
:100680001D4A4032847A02EBC4025360C27A3AB9FE
:10069000194A121D12688A43174B1B1D1A6006E087
:1006A000154A121D12680A43134B1B1D1A6002895A
:1006B00032B9114A143212688A430F4B14331A604C
:1006C0000289012A06D10C4A143212680A430A4BE5
:1006D00014331A60427B012A06D1074A1C32126881
:1006E0000A43054B1C331A60034A126822F00102C8
:1006F000014B1A6010BD00000066004070B5044652
:100700000D46002660692840002871D0B5F5807F2D
:100710005CD010DC082D35D006DC012D20D0022D58
:1007200024D0042D72D127E0102D31D0202D35D0CA
:10073000402D6BD138E0B5F5004F60D009DCB5F540
:10074000007F49D0B5F5806F4CD0B5F5006F5DD115
:100750004FE0B5F5803F2DD0B5F5003F56D12FE0E5
:10076000A0682D4900F048FA064651E0E0680321F0
:1007700000F042FA06464BE0E068082100F03CFA3F
:10078000064645E0E068102100F036FA06463FE0F4
:100790002069032100F030FA064639E0206908217B
:1007A00000F02AFA064633E02069102100F024FA0E
:1007B00006462DE06068082100F01EFA064627E094
:1007C0006068102100F018FA064621E0A0690121B6
:1007D00000F012FA06461BE0A069022100F00CFAB4
:1007E000064615E0A069042100F006FA06460FE06F
:1007F0000FE0A069702100F0FFF9064608E060688C
:10080000042100F0F9F9064602E0FFE7002600BFE8
:1008100000E00026304670BD010101001AB14369B5
:100820000B43436102E043698B434361704730B53A
:10083000024600200023146824F0020414601468A7
:1008400044F00104146000E05B1C546804F00104EF
:100850001CB94FF6FF74A342F6D1546804F00104AA
:100860000CB900206CE08C79012C04D1146844F0A0
:100870008004146003E0146824F080041460CC79D0
:10088000012C04D1146844F04004146003E014689F
:1008900024F0400414600C7A012C04D1146844F054
:1008A0002004146003E0146824F0200414604C7ADF
:1008B000012C04D1146844F01004146003E014689F
:1008C00024F0100414608C7A012C04D1146844F0D4
:1008D0000804146003E0146824F008041460CC7A5F
:1008E000012C04D1146844F00404146003E014687B
:1008F00024F0040414608C78A407CD7844EA0564DD
:100900000D7944EA05444D7944EA05540D886D1E7D
:100910002C43D461146824F001041460002300E027
:100920005B1C546804F001041CB14FF6FF74A34231
:10093000F6D1546804F001040CB1002000E001205D
:1009400030BD10B500F5D87303EB01131B6803F03D
:1009500004031372137A53B900F5D87303EB011330
:100960001B6840F2FF7404EA5353136009E000F57A
:10097000D87303EB01131B686FF0604404EAD303E0
:10098000536000F5D87303EB01131B6803F00203F7
:10099000537200F5D87303EB01135B6803F00F0388
:1009A000937200F5D87303EB01135B681B0AD374D1
:1009B00000F5D87303EB01139B68D37200F5D8736D
:1009C00003EB01139B681C0A147300F5D87303EB47
:1009D00001139B681C0C547300F5D87303EB0113CF
:1009E0009B681B0E937300F5D87303EB0113DB6850
:1009F000D37300F5D87303EB0113DB681C0A14747E
:100A000000F5D87303EB0113DB681C0C547400F57C
:100A1000D87303EB0113DB681B0E937421B9C36811
:100A200043F02003C36003E0036943F02003036144
:100A300010BD10B502460020936803F08063B3F147
:100A4000806F00D110E0936803F00063B3F1006F92
:100A500001D1012008E0936803F08053B3F1805F77
:100A600001D1022000E00420042874D002F5C073F4
:100A700003EB00131B6803F0010402F5C07303EBE2
:100A800000131C600B7A7BB94B7A0C8843EA445301
:100A900002F5C07404EB00142468234302F5C0740B
:100AA00004EB0014236010E00B7A4C6843EAC403A3
:100AB0004C7A234302F5C07404EB001424682343EA
:100AC00002F5C07404EB001423608B7A03F00F036B
:100AD0008B7202F5C07303EB00135B6823F00F0405
:100AE00002F5C07303EB00135C6002F5C07303EB07
:100AF00000135B688C7A234302F5C07404EB001486
:100B000063608B7B1C064B7B44EA03440B7B44EA0B
:100B10000323CC7A234302F5C07404EB0014A360D2
:100B20008B7C1C064B7C44EA03440B7C44EA032385
:100B3000CC7B234302F5C07404EB0014E36002F5A0
:100B4000C07303EB00131B6843F0010402F5C0738C
:100B500003EB00131C6010BD10B50246002321B149
:100B6000012907D002290FD109E090681D4C00EA45
:100B700004030BE090681C4C00EA040306E0906854
:100B80001A4C00EA040301E0002300BF00BF184C28
:100B9000181BA34216D007DC83B16FF080601844A5
:100BA00070B1022818D111E0B0F5007F10D0114CBF
:100BB000204448B1B0F5003F0ED10BE002230DE018
:100BC00000230BE0002309E0002307E0012305E0F8
:100BD000012303E0012301E0002300BF00BFD8B2DE
:100BE00010BD000003000004000300080000031013
:100BF000000100080001FFF70246002002EA01039D
:100C00000BB1012000E000207047704710B54FF491
:100C1000806000F08FF870B14FF48061244800F0DC
:100C20004EFA20B901202349087000F097FA4FF4DA
:100C3000806000F079F84FF4006000F07BF870B14C
:100C40004FF400611A4800F03AFA20B901201A491D
:100C5000087000F083FA4FF4006000F065F84FF47C
:100C6000805000F067F870B14FF48051104800F0E8
:100C700026FA20B901201149087000F02FFA4FF42C
:100C8000805000F051F84FF4005000F053F870B16C
:100C90004FF40051064800F012FA20B9012008492B
:100CA000087000F05BFA4FF4005000F03DF810BD02
:100CB000001001400700002008000020050000206F
:100CC0000900002010B5042000F034F860B10421C0
:100CD000064800F0F4F920B901200549087000F039
:100CE000FDF9042000F020F810BD000000140140C0
:100CF0000600002010B54FF4007000F01BF870B132
:100D00004FF40071064800F0DAF9012803D10549D3
:100D1000087000F0E3F94FF4007000F005F810BD22
:100D200000100140040000200149086070470000E5
:100D300014040140014600200022074B1B6803EA0F
:100D40000102054B14331B680B4013B10AB101209B
:100D500000E000207047000000040140002123490A
:100D60008279002A3AD00A46126803689A430B46F1
:100D70001A600A1D126803689A430B1D1A600279F3
:100D800011440A6803681A430A60184A0832126854
:100D900003689A43154B08331A601A1D12680368DA
:100DA0009A43124B0C331A604279102A0ED11A1F43
:100DB000126803681A430D4B08331A601A1D126833
:100DC00003681A43094B0C331A600DE00749427956
:100DD00011440A6803681A430A6005E00279114465
:100DE0000A6803689A430A607047000000040140E3
:100DF0000EB500F075FB0121084600F055FA0A21F6
:100E0000022000F0B1F84FF48060019000208DF8CE
:100E1000080010208DF8090001A8FFF79FFF282087
:100E20008DF8000002208DF8010001208DF80200ED
:100E30008DF80300684600F0D3F90B21022000F082
:100E400093F84FF40060019000208DF80800102006
:100E50008DF8090001A8FFF781FF28208DF8000018
:100E600002208DF8010001208DF802008DF80300AA
:100E7000684600F0B5F90C21022000F075F84FF437
:100E80008050019000208DF8080010208DF8090096
:100E900001A8FFF763FF28208DF8000002208DF8DD
:100EA000010001208DF802008DF80300684600F073
:100EB00097F90D21022000F057F84FF400500190EF
:100EC00000208DF8080010208DF8090001A8FFF718
:100ED00045FF28208DF8000002208DF80100012038
:100EE0008DF802008DF80300684600F079F90921B9
:100EF000022000F039F84FF40070019000208DF8C6
:100F0000080010208DF8090001A8FFF727FF17201F
:100F10008DF8000002208DF8010001208DF80200FC
:100F20008DF80300684600F05BF90221032000F011
:100F30001BF80420019000208DF8080010208DF887
:100F4000090001A8FFF70AFF08208DF80000022021
:100F50008DF8010001208DF802008DF8030068462D
:100F600000F03EF90EBD000030B500228B071C0FCB
:100F70000F2303FA04F20B4B8C1053F824309343E5
:100F8000084C8D1044F8253023468C1053F824303B
:100F90008C07240F00FA04F42343024C8D1044F80C
:100FA000253030BD080001402DE9F0410246002502
:100FB0000026002000230024002791F803C00CF035
:100FC0000F0591F803C00CF0100CBCF1000F03D01A
:100FD00091F802C04CEA050591F800C0BCF1000F81
:100FE00031D0146800202BE04FF0010C0CFA00F314
:100FF000B1F800C00CEA03069E4220D183004FF0F6
:101000000F0C0CFA03F7BC4305FA03FC4CEA04048A
:1010100091F803C0BCF1280F06D14FF0010C0CFA77
:1010200000FCC2F814C00AE091F803C0BCF1480FFC
:1010300005D14FF0010C0CFA00FCC2F810C0401CA6
:101040000828D1D31460B1F800C0BCF1FF0F34DD23
:10105000546800202EE000F1080C4FF0010808FA57
:101060000CF3B1F800C00CEA03069E4221D18300C4
:101070004FF00F0C0CFA03F7BC4305FA03FC4CEAE3
:10108000040491F803C0BCF1280F05D100F1080C4D
:1010900008FA0CF8C2F8148091F803C0BCF1480FAC
:1010A00007D100F1080C4FF0010808FA0CF8C2F85B
:1010B0001080401C0828CED35460BDE8F081024661
:1010C000002093680B400BB1012000E00020704726
:1010D000416170470161704700BFFEE710B500F045
:1010E000FFF91948007801282CD118480078012808
:1010F00028D117480078012824D1002419E04FF4A2
:10110000FA7000F0A5FB1348006808B9012000E060
:101110000020104908604FF4FA7000F099FB0E4867
:10112000D0F8880108B9012000E0002009490860D2
:10113000641C032CE3DB002003490870034908709A
:101140000349087010BD00000400002005000020C5
:1011500006000020880122420000224210B500F063
:10116000BFF918480078012807D0174800780128EF
:1011700003D016480078012822D1002417E0FA2075
:1011800000F066FB1248006808B9012000E000206A
:101190000F490860FA2000F05BFB0E48D0F8800190
:1011A00008B9012000E0002009490860641C032CF4
:1011B000E5DB002003490870034908700349087003
:1011C00010BD0000070000200800002009000020DA
:1011D000800122420000224200BFFEE7704700006B
:1011E00070B5002100230F22C47804B3154C246885
:1011F00004F4E064C4F5E064210AC1F10403CA40C8
:10120000447804FA03F184781440214309010E4C18
:101210000678A155047804F01F050124AC40057838
:101220006D11AD0005F1E025C5F8004109E0047835
:1012300004F01F050124AC40044D0678761145F8F2
:10124000264070BD0CED00E000E400E080E100E02D
:1012500002490143024A1160704700000000FA058C
:101260000CED00E07047000029B1064AD269024344
:10127000044BDA6104E0034AD2698243014BDA612C
:10128000704700000010024029B1064A126902436B
:10129000044B1A6104E0034A12698243014B1A614C
:1012A000704700000010024029B1064A92690243CB
:1012B000044B9A6104E0034A92698243014B9A61AC
:1012C000704700000010024070B588B00446002549
:1012D000002614A103C9CDE90101039400208DF873
:1012E00015008DF8140008208DF816000198CDF82F
:1012F00017000298CDF81B0003A90C48FFF799FBD3
:10130000054600BF29460948FFF726FC012805D0FD
:10131000701C064640F6FF718842F3D3002008B0E7
:1013200070BD00002F01200101000000006400409A
:1013300070B588B004460025002614A103C9CDE984
:101340000101039400208DF815008DF81400082089
:101350008DF816000198CDF817000298CDF81B0003
:1013600003A90C48FFF765FB054600BF294609485D
:10137000FFF7F2FB012805D0701C064640F6FF710E
:101380008842F3D3002008B070BD00002F01200276
:10139000020000000064004070B588B004460025DB
:1013A000002614A103C9CDE90101039400208DF8A2
:1013B00015008DF8140008208DF816000198CDF85E
:1013C00017000298CDF81B0003A90C48FFF731FB6A
:1013D000054600BF29460948FFF7BEFB012805D096
:1013E000701C064640F6FF718842F3D3002008B017
:1013F00070BD00002F1120010100000000640040BA
:1014000010B518480078012807D140F21140FFF7C5
:101410005BFF00201349087022E013480078012880
:1014200007D140F2114000F025F800200E49087065
:1014300016E00E480078012807D140F21140FFF76E
:1014400077FF0020094908700AE009480078012860
:1014500006D140F21140FFF79FFF002004490870B9
:1014600010BD00000000002001000020020000204C
:101470000300002070B588B004460025002614A1A2
:1014800003C9CDE90101039400208DF815008DF802
:10149000140008208DF816000198CDF81700029866
:1014A000CDF81B0003A90C48FFF7C3FA054600BF9F
:1014B00029460948FFF750FB012805D0701C064655
:1014C00040F6FF718842F3D3002008B070BD0000E1
:1014D00027012008013C0000006400407047000024
:1014E00008B501213020FFF7DFFE4FF47850ADF84A
:1014F000000004208DF8030003208DF802006946E7
:101500000B48FFF751FD0420ADF80000694609487B
:10151000FFF74AFD3F20ADF8000010208DF80300D2
:1015200003208DF8020069460148FFF73DFD08BD24
:10153000001001400014014010B500F001F810BD8A
:101540000CB50020019000904448006820F48030E1
:10155000424908600846006840F480200860084658
:10156000006840F48030086000BF3C48006800F428
:10157000003000900198401C0190009818B9019823
:10158000B0F5A06FF1D13548006800F4003010B11B
:101590000120009001E000200090009801285CD11B
:1015A0002F48006840F010002D4908600846006888
:1015B00020F0030008600846006840F00200086060
:1015C0002648406825494860084640684860084603
:1015D000406840F4806048600846C06A214908407D
:1015E0001E49C8620846C06A1F4908431B49C862B1
:1015F0000846006840F08060086000BF1748006837
:1016000000F000600028F9D01448406820F47C10F5
:10161000124948600846406840F4E81048600846AF
:10162000006840F08070086000BF0C48006800F05F
:1016300000700028F9D00948406820F003000749ED
:1016400048600846406840F00200486000BF034818
:10165000406800F00C000828F9D10CBD00100240D1
:101660000020024000F0FEFF14080100042808D109
:101670004FF0E021096941F004014FF0E0221161CF
:1016800007E04FF0E021096921F004014FF0E0226A
:10169000116170477047000010B51648006840F0AF
:1016A0000100144908600846406813490840114980
:1016B000486008460068114908400E49086008461D
:1016C000006820F4802008600846406820F4FE008E
:1016D00048600846006820F0A05008604FF47F0082
:1016E00088600020C862FFF727FF4FF000600449C0
:1016F000086010BD001002400000FFF0FFFFF6FE82
:1017000008ED00E010B540F225511D4800F03EF80C
:1017100010B31B4800F064F8C4B21A48008800F403
:101720000040C8B91748008800F4804060B10A2C16
:1017300003D000201349088020E01248008840F4BC
:1017400000401049088019E00D2C06D10D48008892
:1017500040F480400B49088010E00A480088C0F33C
:101760000D0009490C5407480088401C05490880B1
:1017700008460088C72801DD0020088010BD000051
:1017800000380140280000204000002070B50246CB
:10179000002400230025002040F66A16B14200D143
:1017A00000BFC1F3421501F01F03012606FA03F33F
:1017B000012D02D19689334006E0022D02D1168A0E
:1017C000334001E0968A33400C12012606FA04F4F5
:1017D0001688344013B10CB1012000E0002070BD28
:1017E00001468888C0F30800704700BFFEE702E0AA
:1017F00008C8121F08C1002AFAD17047704700209C
:1018000001E001C1121F002AFBD1704710B56FF033
:101810000400FFF72BFF0A4800680A49B0FBF1F00B
:10182000094908700846007800EB4001C1EBC01080
:101830004FF6FF7101EAC0000449088010BD0000A6
:101840000C00002000127A0020000020220000205E
:101850000146114A12884A434FF0E0235A610022A0
:101860009A611A46126942F001021A6100BF4FF0F4
:10187000E022106900F001021AB100F48032002A5F
:10188000F5D04FF0E022126922F001024FF0E02380
:101890001A6100229A61704722000020FFF7B6FF0C
:1018A0004FF4A060FFF7D4FCFFF71AFEFEF77EFCB2
:1018B000FFF79EFA012005490860FEF7F1FD04E0FC
:1018C0004FF480410248FFF703FCF9E7840122420C
:1018D000000C0140F4180008000000202C0000005B
:1018E000EE170008201900082C000020DC0400007E
:1018F000FE170008000000000000000000000000CB
:1019000000A24A04000000000000000001020304DD
:1019100006070809000000000000000000000000A9
:04000005080001519D
:00000001FF
